:020000040800F2
:10000000A8040020A90100081F1200084D0F0008D5
:100010001D120008B5020008E914000800000000E5
:100020000000000000000000000000002312000893
:10003000B702000800000000211200082512000885
:10004000C3010008C3010008C3010008C301000880
:10005000C3010008C3010008B9020008BF0200087C
:10006000C3010008C3010008C3010008C301000860
:10007000C3010008C3010008C3010008C301000850
:10008000C3010008C3010008C3010008000000000C
:10009000000000000000000000000000C301000894
:1000A000CD120008C3010008C3010008C301000805
:1000B000C3010008C3010008C3010008C301000810
:1000C000C3010008C3010008C3010008C301000800
:1000D000C3010008C3010008C301000800000000BC
:1000E000C3010008C3010008C301000800000000AC
:1000F000000000000000000000000000C301000834
:1001000000000000C3010008C3010008C30100088B
:1001100000000000000000000000000000000000DF
:10012000C3010008C3010008C3010008C30100089F
:10013000C3010008000000000000000000000000F3
:10014000000000000000000000000000C3010008E3
:10015000C3010008C3010008C3010008C30100086F
:10016000C3010008C30100080000000000000000F7
:10017000000000000000000000000000000000007F
:1001800000000000C30100080000000000000000A3
:10019000C3010008DFF80CD000F07AF800480047EF
:1001A00029150008A8040020064880470648004793
:1001B000FEE7FEE7FEE7FEE7FEE7FEE7FEE7FEE717
:1001C000FEE7FEE7BD120008950100082DE9F05F8B
:1001D0000546002092469B468846064681464024B6
:1001E0001BE0284641464746224600F041F8534668
:1001F0005A46C01A914110D311461846224600F0C3
:1002000028F82D1A67EB01084F46224601200021ED
:1002100000F01FF817EB00094E41201EA4F1010465
:10022000DFDC484631462A464346BDE8F09FD2B25D
:1002300001E000F8012B491EFBD270470022F6E7CF
:1002400010B513460A4604461946FFF7F0FF20464C
:1002500010BD202A04DB203A00FA02F1002070478A
:100260009140C2F1200320FA03F3194390407047F4
:10027000202A04DB203A21FA02F00021704721FAFB
:1002800002F3D040C2F12002914008431946704762
:10029000064C074D06E0E06840F0010394E80700D3
:1002A00098471034AC42F6D3FFF778FF5815000892
:1002B00078150008FEE77047012000F00FB8022013
:1002C00000F00CB872B6FEE7012803D0022803D173
:1002D00000F0DEBE00F048BE70470000044910B5D3
:1002E0000A68024202D00860FFF7EEFF10BD00006E
:1002F000143C01402DE9F84FDFF8B8A10022012499
:1003000003254FF00F090AF1040BAAF1040E00BFF8
:100310000B6804FA02F63340B34273D10F7907F049
:100320000307012F01D0022F16D187684FEA420838
:1003300005FA08FC27EA0C07D1F80CC00CFA08FCF7
:100340004CEA070CC0F808C04768B7430E79C6F3FB
:10035000001696403E4346600E79F643B6070DD030
:10036000C768560005FA06FC27EA0C07D1F808C052
:100370000CFA06FC4CEA070CC0F80CC00E7906F02B
:100380000306022E10D1D60800EB8608D8F82060AC
:1003900057074FEAD76C09FA0CF7BE430F6907FA03
:1003A0000CF73743C8F8207006684FEA420C05FA8C
:1003B0000CF7BE430F7907F0030707FA0CF7374332
:1003C00007604E6816F4403F6DD03B4E376847F4E7
:1003D00080473760366822F0030706F480460096AF
:1003E000364E07EB060CDCF8086897073F0F09FA52
:1003F00007F826EA0806DFF8C880404503D14FF029
:1004000000081EE04FE0DFF8BC80404502D14FF00D
:10041000010816E0DFF8B080404502D14FF0020835
:100420000FE0DFF8A880404502D14FF0030808E054
:10043000DFF89C80404502D14FF0040801E04FF006
:10044000070808FA07F848EA0608CCF80888DAF836
:1004500000605746D1F804C09E435FEACC2C00D51B
:100460001E433E60DBF800605F46D1F804C09E4347
:100470005FEA8C2C00D51E433E60DEF800607746B4
:10048000D1F804C09E435FEA8C3C00D51E433E6019
:10049000084F083F3E68D1F804C09E435FEACC3C59
:1004A00000D51E433E60521C102AFFF431AFBDE858
:1004B000F88F0000083C0140443802400030014001
:1004C000000002400004024000080240000C02400C
:1004D000001002400069084000D0012070470AB1B6
:1004E000816170470904FBE701488068704700009C
:1004F0000000002002488168027811448160704742
:10050000000000200B4810B5016841F40071016043
:10051000016841F480610160016841F4807101600B
:10052000032000F06FF80F2000F006F800F024F828
:10053000002010BD003C024070B50D4D04464FF444
:100540007A712878B1FBF0F00A490968B1FBF0F044
:1005500000F00CFB48B9102C07D200222146501E97
:1005600000F030F800206C6070BD012070BD00000C
:10057000000000200C0000200A4808B5016841F482
:1005800080410160006800F4804000900548001F31
:10059000016841F080510160006800F080500090D7
:1005A00008BD000044380240002809DB00F01F02AB
:1005B000012191404009800000F1E020C0F80011C5
:1005C00070470000F0B40E4B1B680C46C3F30223C7
:1005D000C3F10705042D00D90425191D072901D2EF
:1005E000002300E0DB1E012606FA05F1491E21402A
:1005F00099409E40761E16403143F0BC00F075BF16
:100600000CED00E0064900F0070208684FF6FF0312
:10061000184040EA0220034A104308607047000077
:100620000CED00E00000FA052DE9F0470E4605004C
:1006300065D0DFF81481D8F80000F7B200F00700A9
:10064000B04207D288F80070D8F8000000F0070028
:10065000B04254D128683D4C810712D5400703D5DC
:10066000206840F4E05020602878000703D5206817
:1006700040F4604020602068A96820F0F000084342
:1006800020602878C0072DD03049686808390128D3
:1006900012D0022813D0032811D009688907002935
:1006A0002DDA216821F0030101432160FFF71CFFCF
:1006B000814641F2883A0EE009688903EFE709684C
:1006C0008901ECE7FFF710FFA0EB0901514502D9C2
:1006D0000320BDE8F0872068696800F00C00B0EBEB
:1006E000810FEFD1D8F80010404601F00701B14268
:1006F00007D90770006800F00700B04201D0012060
:10070000E7E72878400705D52068E96820F4E0503D
:10071000084320602878000706D52068296920F45E
:10072000604040EAC100206000F038F82168084AC3
:10073000C1F30311515CC8400649086006480068CF
:10074000FFF7FAFE0020C4E7003C024008380240F0
:100750003E1500080C000020040000200448054954
:1007600000680968044AC1F38221515CC84070479F
:100770000C000020083802404E15000804480549C6
:1007800000680968044AC1F34231515CC8407047AF
:100790000C000020083802404E150008154810B51E
:1007A000006810F00C02144813D01449042A0FD02A
:1007B000082A0ED10F4C241F2268236802F03F0242
:1007C0005B0207D52068C0F38810A0FB010106E09A
:1007D000084610BD2168C1F38811A1FB0001002368
:1007E000FFF7F4FC2168C1F30141491C4900B0FB4B
:1007F000F1F010BD083802400024F40040787D017B
:100800002DE9F84F04006ED02078DFF84C93C00734
:10081000A9F104054AD009F104000168C1F381017E
:10082000012908D00068C0F3810002280AD1D9F854
:100830000000400206D52868800337D5606800288C
:10084000E1D033E06068B0F5803F10D0B0F5A02F64
:10085000286810D020F480302860286820F4802098
:1008600028606068A8B1FFF73FFE06460DE02868E3
:1008700040F48030F4E740F480202860F7E700BFC0
:10088000FFF732FE801B642873D828688003F7D5F1
:100890000CE0FFF729FE064605E000BFFFF724FE47
:1008A000801B6428F0D828688003F7D42078DFF80C
:1008B000AC8280074FF0000A3ED5A748001D0168B2
:1008C00011F00C0F08D00068C0F3810002280BD192
:1008D000D9F80000400207D42868800716D5E068E0
:1008E000012800D112E033E1E068B8B10120C8F876
:1008F0000000FFF7F9FD064605E000BFFFF7F4FD35
:10090000801B0228C0D828688007F7D5286821698D
:1009100020F0F80040EAC10028600DE0C8F800A00F
:10092000FFF7E2FD064604E0FFF7DEFD801B02282C
:100930001FD828688007F7D42078000722D5864F73
:1009400087486169703771B101210160FFF7CCFD03
:10095000064604E0FFF7C8FD801B022809D8386866
:100960008007F7D50EE0C0F800A0FFF7BDFD0646F2
:1009700005E082E0FFF7B8FD801B02287DD83868CB
:100980008007F7D42078400768D5DFF8CCB100277E
:100990000BF13C0BDBF80000C0000BD4DBF80010BF
:1009A00041F08051CBF80010DBF80000012700F087
:1009B000805000906B4E3068C00510D4306840F411
:1009C00080703060FFF790FD009005E0FFF78CFD30
:1009D0000099401A022850D83068C005F6D55E4EFE
:1009E000A0686C3601280FD00528306810D020F0A0
:1009F00001003060306820F004003060A068B8B1B9
:100A0000FFF772FD00900FE0306840F00100F4E75E
:100A100040F004003060F7E7FFF766FD0099411AE7
:100A200041F28830814266D830688007F4D50EE004
:100A3000FFF75AFD009007E0FFF756FD0099411AB5
:100A400041F28830814256D830688007F4D42FB103
:100A5000DBF8001021F08051CBF80010A069C8B37A
:100A60003D49091D0968C1F3810102294AD00228C4
:100A7000504607D0C8F8600000E03CE0FFF734FDC6
:100A800004463BE04746C8F86000FFF72DFD0646E8
:100A900005E000BFFFF728FD801B02282BD828683F
:100AA0008001F7D4D4E907010843A16A2E4A490816
:100AB00002EB0141626A41EA8211084394F82C106A
:100AC00040EA0161C9F8001001203866FFF70CFD0B
:100AD000044606E03EE000BFFFF706FD001B0228CB
:100AE00009D828688001F7D534E000BFFFF7FCFC87
:100AF000001B022802D90320BDE8F88F2868800176
:100B0000F4D427E00128F7D0D9F80000E26900F416
:100B1000800191421CD1226A00F03F01914217D11D
:100B200047F6C071626A0140B1EB821F10D1A26A20
:100B30004FF0FF3300F4403103EB5202B1EB024FB0
:100B400006D194F82C1000F07060B0EB016F01D06A
:100B50000120D1E70020CFE70438024000004742DF
:100B6000800E4742007000400000FFFF10B5401E9D
:100B7000B0F1807F01D3012010BD4FF0E02460610F
:100B80000F21601700F0B1FC0020A0610720206158
:100B9000002010BD7047704710B5040003D094F8D2
:100BA0003D0010B107E0012010BD002084F83C009A
:100BB000204600F01FF8022084F83D00211D206827
:100BC00000F08AFB012084F8460084F83E0084F897
:100BD0003F0084F8400084F8410084F8420084F823
:100BE000430084F8440084F8450084F83D00002068
:100BF00010BD000008B500680B49884212D10B48AF
:100C0000016841F4803101600068002200F4803006
:100C1000009011461820FFF7D5FCBDE808401820C9
:100C2000FFF7C2BC08BD000000400140443802404C
:100C300070B5044690F83C000025012817D0012625
:100C400084F83C60022084F83D002068826822F02D
:100C5000770222F47F4282600868502838D00DDC89
:100C600020284FD005DC90B3102811D14AE0022093
:100C700070BD302846D040280AD13BE060282FD0F4
:100C800070280DD0B0F5805F03D0B0F5005F12D0B2
:100C9000012584F83D60002084F83C00284670BDA2
:100CA000CB68D1E90121206800F062FB20688168EF
:100CB00041F0770109E0CB68D1E90121206800F01B
:100CC00057FB2068816841F480418160E1E719E0C9
:100CD000CA684968206800F05DFB5021206806E082
:100CE000CA684968206800F066FB6021206800F04F
:100CF00049FBCEE7CA684968206800F04BFB4021F9
:100D00002068F4E7226801461046F0E7704770B5A6
:100D10000446006801694FF00005C943890715D4EE
:100D2000C168C943890711D4E91E016101202077F8
:100D3000206880698007204602D0FFF7E7FF04E0C3
:100D400000F098F8204600F096F8257720680169B1
:100D5000C943490717D4C168C943490713D46FF081
:100D600004010161022020772068806910F4407F2F
:100D7000204602D0FFF7CAFF04E000F07BF82046CF
:100D800000F079F8257720680169C943090716D46E
:100D9000C168C943090712D46FF00801016104203A
:100DA00020772068C0698007204602D0FFF7AEFF99
:100DB00004E000F05FF8204600F05DF82577206839
:100DC0000169C943C90617D4C168C943C90613D408
:100DD0006FF010010161082020772068C06910F4CD
:100DE000407F204602D0FFF791FF04E000F042F878
:100DF000204600F040F8257720680169C943C907FB
:100E000008D1C168C943C90704D1891E01612046C0
:100E100000F032F820680169C943090609D4C168A5
:100E2000C943090605D46FF0800101612046FFF730
:100E3000B1FE20680169C943490609D4C168C943A4
:100E4000490605D46FF040010161204600F015F815
:100E500020680169C94389060BD4C168C943890662
:100E600007D46FF0200101612046BDE87040FFF714
:100E700092BE70BD704770477047704770B50400F0
:100E800004D094F83D00002510B106E0012070BDAB
:100E900084F83C50204600F023F8242084F83D00DC
:100EA0002068C16821F40051C160204600F096FA24
:100EB0002068016921F4904101612068416921F0B5
:100EC0002A0141612068C16841F40051C160256474
:100ED000202084F83D0084F83E00002070BD000012
:100EE00010B586B0044614216846FFF7A7F91449E7
:100EF0002068884221D113480021026842F0100284
:100F00000260006800F0100005900E481438026876
:100F100042F001020260006800F0010005904FF409
:100F2000C06000900220CDE901010320039007205A
:100F3000049069460448FFF7DDF906B010BD0000D3
:100F4000001001404438024000000240FEE700006B
:100F500001210148FFF7BEBA00000240022101480A
:100F6000FFF7B8BA0000024010B5FFF7F1FF012803
:100F700003D0BDE8104000F005B8BDE8104000F017
:100F80002BB8000070B5134C00252078012806D03E
:100F9000052808D16078000606D5012005E06570B7
:100FA000A5700220207070BD002000F0A3F86078CA
:100FB00040006070A078401CC0B2A0700928F2D137
:100FC000A570012000F096F800F07EF80120607115
:100FD000257070BD1000002070B52C4C00252078C5
:100FE000022814D003283BD004280FD16078400099
:100FF0006070FFF7B3FF617808436070A078401C11
:10100000C0B2A070092801D16570A57070BD60786C
:1010100040006070FFF7A2FF61780843C1B26170C1
:10102000A078401CC0B2A070082813D00928EDD1C8
:10103000A570E078542810D05528E7D1012000F0A1
:1010400059F800F04BF805202070AA206070A570B8
:10105000657170BDE170657070BD0320207070BD5A
:10106000607840006070FFF779FF61780843C1B293
:101070006170A078401CC0B2A070082804D0092874
:10108000EDD104202070BFE7217170BD1000002059
:1010900010B50C4C607901280CD1FFF759FF0128DD
:1010A00008D1FFF75BFF012805D000F00DF821788B
:1010B0000120207010BD00202070BDE8104000F01D
:1010C00003B80000100000200348016821F00C0163
:1010D0000160016801607047000002400448016837
:1010E00021F00C010160016841F0040101607047CA
:1010F00000000240024602210148FFF7F0B900005B
:101100000000024070B586B014216846FFF796F8DB
:101110001E480024016841F080010160016801F06F
:1011200080010591016841F0010101600068184EDD
:1011300000F001000590224604213046FFF7CFF968
:10114000032000904FF444100125CDE901056946C4
:101150003046FFF7CFF804200090CDE901546946EE
:1011600030460394FFF7C6F8002211460620FFF729
:1011700029FA0620FFF718FA002211460720FFF788
:1011800021FA0720FFF710FA06B070BD3038024090
:10119000000002401FB50021114800910191029109
:1011A0000E4A039102605322C0E901214FF6FF72FB
:1011B000C0E9032180218161FFF7EEFC08B1FFF750
:1011C00081F84FF48050009069460548FFF730FDE4
:1011D000002801D0FFF776F81FBD00000040014055
:1011E000180000200C4810B50A4901604FF4E131A5
:1011F0004160002181600C22C160C0E9041281615C
:10120000C161FFF73BFE002803D0BDE81040FFF7A7
:1012100059B810BD0010014060000020FEE7FEE755
:1012200070477047FFF766B930B593B03021684614
:10123000FFF704F814210CA8FFF700F81D4800255B
:10124000016841F080510160006800F08050119009
:101250001948016821F4404141F4004101600068EF
:10126000022400F4404011900120009000040190FD
:101270008001CDE9064019200890A820CDE9090495
:1012800004200B906846FFF7BBFA08B172B6FEE780
:101290000CA90F2081E831004FF48050CDE90F05F3
:1012A00002210CA8FFF7C0F9002801D072B6FEE7B2
:1012B00013B030BD40380240007000400248016861
:1012C00041F470010160704788ED00E00148FFF7CC
:1012D0001EBD000018000020F0B502681D4B1E4C1A
:1012E0009F031E4D1E4E984207D0B84205D0A04223
:1012F00003D0A84201D0B04204D122F0700C4A6859
:1013000042EA0C02984210D0B8420ED0A0420CD053
:10131000A8420AD0B04208D0124CA04205D0124CCC
:10132000A04202D0114CA04203D122F44074CA68FA
:1013300022434C6922F08002224302608A68C26222
:101340000A688262984201D1096901630121416101
:10135000F0BD000000000140000400400008004013
:10136000000C0040004001400044014000480140A2
:1013700010B5846842EA032224F47F440A432243DE
:10138000826010BD826822F070020A4342F00701B9
:101390008160704710B5036A046A24F00104046296
:1013A000846924F0F00444EA021423F00A020A4398
:1013B0008461026210BD10B5036A23F0100303625A
:1013C0008369046A23F4704343EA023224F0A003E1
:1013D00043EA01118261016210BD000070B504464C
:1013E00000680169E26821F44051114301612169FB
:1013F000A068E26908436169114308432168CA682B
:1014000049F20C639A430243CA6020684169A269A9
:1014100021F440711143416131492068884202D072
:101420003049884202D1FFF7A9F901E0FFF796F9A8
:10143000E2690023192164253226B2F5004F626863
:1014400028D0A0FB0101930F9200FEF7BFFE0146DA
:10145000B0FBF5F06FF01802504301EB800006EB93
:101460000010B0FBF5F000F0F002B1FBF5F002EB7C
:101470000012B1FBF5F06FF01803584301EB800048
:1014800006EB0010B0FBF5F000F00F0021681044EF
:10149000886070BDA0FB010192185B41FEF796FECB
:1014A0000146B0FBF5F00201B1FBF5F06FF0180357
:1014B000584301EB800006EBC000B0FBF5F000F0F4
:1014C000F80002EB4002B1FBF5F0584301EB80005D
:1014D00006EBC000B0FBF5F000F00700D6E7000017
:1014E0000010014000140140FEE70907090E002822
:1014F00004DB00F1E02080F80014704700F00F00DA
:1015000000F1E02080F8141D704702E008C8121FA7
:1015100008C1002AFAD170477047002001E001C1DC
:10152000121F002AFBD17047FEF7ECFFFFF77CFE8D
:10153000FFF7E8FDFFF756FEFFF72CFEFEE7000081
:101540000000000000000102030406070809000073
:1015500000000102030400007815000800000020CC
:10156000180000000A150008901500081800002057
:10157000900400001A15000801000000100000008F
:10158000000000000024F400000000000001000042
:040000050800019559
:00000001FF
